{
  "_format": "hh-sol-artifact-1",
  "contractName": "NFTLotteryPoolFactory",
  "sourceName": "contracts/NFTLotteryPoolFactory.sol",
  "abi": [
    {
      "inputs": [
        {
          "internalType": "address",
          "name": "_distributorAddress",
          "type": "address"
        },
        {
          "internalType": "address",
          "name": "_linkAddress",
          "type": "address"
        },
        {
          "internalType": "uint256",
          "name": "_fee",
          "type": "uint256"
        },
        {
          "internalType": "address",
          "name": "_template",
          "type": "address"
        }
      ],
      "stateMutability": "nonpayable",
      "type": "constructor"
    },
    {
      "anonymous": false,
      "inputs": [
        {
          "indexed": false,
          "internalType": "address",
          "name": "a",
          "type": "address"
        },
        {
          "indexed": false,
          "internalType": "address",
          "name": "deployer",
          "type": "address"
        }
      ],
      "name": "LotteryDeployed",
      "type": "event"
    },
    {
      "anonymous": false,
      "inputs": [
        {
          "indexed": true,
          "internalType": "address",
          "name": "previousOwner",
          "type": "address"
        },
        {
          "indexed": true,
          "internalType": "address",
          "name": "newOwner",
          "type": "address"
        }
      ],
      "name": "OwnershipTransferred",
      "type": "event"
    },
    {
      "inputs": [],
      "name": "claimETH",
      "outputs": [],
      "stateMutability": "nonpayable",
      "type": "function"
    },
    {
      "inputs": [
        {
          "internalType": "bytes32",
          "name": "salt",
          "type": "bytes32"
        },
        {
          "internalType": "address",
          "name": "_prizeAddress",
          "type": "address"
        },
        {
          "internalType": "uint256",
          "name": "_prizeId",
          "type": "uint256"
        },
        {
          "internalType": "uint64",
          "name": "_startDate",
          "type": "uint64"
        },
        {
          "internalType": "uint64",
          "name": "_endDate",
          "type": "uint64"
        },
        {
          "internalType": "uint32",
          "name": "_minTicketsToSell",
          "type": "uint32"
        },
        {
          "internalType": "uint32",
          "name": "_maxTickets",
          "type": "uint32"
        },
        {
          "internalType": "uint32",
          "name": "_maxTicketsPerAddress",
          "type": "uint32"
        },
        {
          "internalType": "uint256",
          "name": "_ticketPrice",
          "type": "uint256"
        }
      ],
      "name": "createNFTLotteryPool",
      "outputs": [
        {
          "internalType": "address",
          "name": "",
          "type": "address"
        }
      ],
      "stateMutability": "payable",
      "type": "function"
    },
    {
      "inputs": [],
      "name": "distributorAddress",
      "outputs": [
        {
          "internalType": "address",
          "name": "",
          "type": "address"
        }
      ],
      "stateMutability": "view",
      "type": "function"
    },
    {
      "inputs": [],
      "name": "fee",
      "outputs": [
        {
          "internalType": "uint256",
          "name": "",
          "type": "uint256"
        }
      ],
      "stateMutability": "view",
      "type": "function"
    },
    {
      "inputs": [
        {
          "internalType": "bytes32",
          "name": "salt",
          "type": "bytes32"
        }
      ],
      "name": "getLotteryAddress",
      "outputs": [
        {
          "internalType": "address",
          "name": "",
          "type": "address"
        }
      ],
      "stateMutability": "view",
      "type": "function"
    },
    {
      "inputs": [],
      "name": "linkAddress",
      "outputs": [
        {
          "internalType": "address",
          "name": "",
          "type": "address"
        }
      ],
      "stateMutability": "view",
      "type": "function"
    },
    {
      "inputs": [],
      "name": "owner",
      "outputs": [
        {
          "internalType": "address",
          "name": "",
          "type": "address"
        }
      ],
      "stateMutability": "view",
      "type": "function"
    },
    {
      "inputs": [],
      "name": "poolFee",
      "outputs": [
        {
          "internalType": "uint256",
          "name": "",
          "type": "uint256"
        }
      ],
      "stateMutability": "view",
      "type": "function"
    },
    {
      "inputs": [],
      "name": "renounceOwnership",
      "outputs": [],
      "stateMutability": "nonpayable",
      "type": "function"
    },
    {
      "inputs": [],
      "name": "template",
      "outputs": [
        {
          "internalType": "address",
          "name": "",
          "type": "address"
        }
      ],
      "stateMutability": "view",
      "type": "function"
    },
    {
      "inputs": [
        {
          "internalType": "address",
          "name": "newOwner",
          "type": "address"
        }
      ],
      "name": "transferOwnership",
      "outputs": [],
      "stateMutability": "nonpayable",
      "type": "function"
    },
    {
      "inputs": [
        {
          "internalType": "uint256",
          "name": "f",
          "type": "uint256"
        }
      ],
      "name": "updatePoolFee",
      "outputs": [],
      "stateMutability": "nonpayable",
      "type": "function"
    }
  ],
  "bytecode": "0x60e060405267016345785d8a000060015534801561001c57600080fd5b50604051610e54380380610e5483398101604081905261003b916100f8565b6100443361008c565b606092831b6001600160601b03199081166080529390921b90921660a05260c091909152600280546001600160a01b0319166001600160a01b03909216919091179055610144565b600080546001600160a01b038381166001600160a01b0319831681178455604051919092169283917f8be0079c531659141344cd1fd0a4f28419497f9722a3daafe3b4186f6b6457e09190a35050565b80516001600160a01b03811681146100f357600080fd5b919050565b6000806000806080858703121561010d578384fd5b610116856100dc565b9350610124602086016100dc565b925060408501519150610139606086016100dc565b905092959194509250565b60805160601c60a05160601c60c051610cce61018660003960008181610224015261057a0152600061019d01526000818160e701526105540152610cce6000f3fe6080604052600436106100a75760003560e01c8063a51af4c511610064578063a51af4c51461018b578063bd1dc0d1146101bf578063be4ab8a4146101df578063c2cac04b146101f2578063ddca3f4314610212578063f2fde38b1461024657600080fd5b8063089fe6aa146100ac578063235cea98146100d557806367272999146101215780636f2ddd9314610138578063715018a6146101585780638da5cb5b1461016d575b600080fd5b3480156100b857600080fd5b506100c260015481565b6040519081526020015b60405180910390f35b3480156100e157600080fd5b506101097f000000000000000000000000000000000000000000000000000000000000000081565b6040516001600160a01b0390911681526020016100cc565b34801561012d57600080fd5b50610136610266565b005b34801561014457600080fd5b50600254610109906001600160a01b031681565b34801561016457600080fd5b506101366102d6565b34801561017957600080fd5b506000546001600160a01b0316610109565b34801561019757600080fd5b506101097f000000000000000000000000000000000000000000000000000000000000000081565b3480156101cb57600080fd5b506101096101da366004610b3e565b61030c565b6101096101ed366004610b56565b61032b565b3480156101fe57600080fd5b5061013661020d366004610b3e565b6105ed565b34801561021e57600080fd5b506100c27f000000000000000000000000000000000000000000000000000000000000000081565b34801561025257600080fd5b50610136610261366004610b04565b61061c565b6000546001600160a01b031633146102995760405162461bcd60e51b815260040161029090610c37565b60405180910390fd5b600080546040516001600160a01b03909116914780156108fc02929091818181858888f193505050501580156102d3573d6000803e3d6000fd5b50565b6000546001600160a01b031633146103005760405162461bcd60e51b815260040161029090610c37565b61030a60006106b0565b565b600254600090610325906001600160a01b031683610700565b92915050565b60006001543410156103695760405162461bcd60e51b81526020600482015260076024820152665061792066656560c81b6044820152606401610290565b600254600090610382906001600160a01b03168c61076d565b60405163b9a2457360e01b81526001600160a01b038c81166004830152602482018c905267ffffffffffffffff808c1660448401528a16606483015263ffffffff808a16608484015280891660a4840152871660c483015260e482018690529192509082169063b9a245739061010401600060405180830381600087803b15801561040c57600080fd5b505af1158015610420573d6000803e3d6000fd5b505060405163f2fde38b60e01b81523360048201526001600160a01b038416925063f2fde38b9150602401600060405180830381600087803b15801561046557600080fd5b505af1158015610479573d6000803e3d6000fd5b505060405163095ea7b360e01b81526001600160a01b038481166004830152602482018d90528d16925063095ea7b39150604401600060405180830381600087803b1580156104c757600080fd5b505af11580156104db573d6000803e3d6000fd5b5050604051632142170760e11b81523060048201526001600160a01b038481166024830152604482018d90528d1692506342842e0e9150606401600060405180830381600087803b15801561052f57600080fd5b505af1158015610543573d6000803e3d6000fd5b5061059e9250506001600160a01b037f000000000000000000000000000000000000000000000000000000000000000016905033837f000000000000000000000000000000000000000000000000000000000000000061080d565b604080516001600160a01b03831681523360208201527f7dda97fb513bc2337912013e6ada0de01392dd00f2044277559bbf64809e832e910160405180910390a19a9950505050505050505050565b6000546001600160a01b031633146106175760405162461bcd60e51b815260040161029090610c37565b600155565b6000546001600160a01b031633146106465760405162461bcd60e51b815260040161029090610c37565b6001600160a01b0381166106ab5760405162461bcd60e51b815260206004820152602660248201527f4f776e61626c653a206e6577206f776e657220697320746865207a65726f206160448201526564647265737360d01b6064820152608401610290565b6102d3815b600080546001600160a01b038381166001600160a01b0319831681178455604051919092169283917f8be0079c531659141344cd1fd0a4f28419497f9722a3daafe3b4186f6b6457e09190a35050565b6000610766838330604051733d602d80600a3d3981f3363d3d373d3d3d363d7360601b8152606093841b60148201526f5af43d82803e903d91602b57fd5bf3ff60801b6028820152921b6038830152604c8201526037808220606c830152605591012090565b9392505050565b6000604051733d602d80600a3d3981f3363d3d373d3d3d363d7360601b81528360601b60148201526e5af43d82803e903d91602b57fd5bf360881b6028820152826037826000f59150506001600160a01b0381166103255760405162461bcd60e51b815260206004820152601760248201527f455243313136373a2063726561746532206661696c65640000000000000000006044820152606401610290565b604080516001600160a01b0385811660248301528416604482015260648082018490528251808303909101815260849091019091526020810180516001600160e01b03166323b872dd60e01b17905261086790859061086d565b50505050565b60006108c2826040518060400160405280602081526020017f5361666545524332303a206c6f772d6c6576656c2063616c6c206661696c6564815250856001600160a01b03166109449092919063ffffffff16565b80519091501561093f57808060200190518101906108e09190610b1e565b61093f5760405162461bcd60e51b815260206004820152602a60248201527f5361666545524332303a204552433230206f7065726174696f6e20646964206e6044820152691bdd081cdd58d8d9595960b21b6064820152608401610290565b505050565b6060610953848460008561095b565b949350505050565b6060824710156109bc5760405162461bcd60e51b815260206004820152602660248201527f416464726573733a20696e73756666696369656e742062616c616e636520666f6044820152651c8818d85b1b60d21b6064820152608401610290565b843b610a0a5760405162461bcd60e51b815260206004820152601d60248201527f416464726573733a2063616c6c20746f206e6f6e2d636f6e74726163740000006044820152606401610290565b600080866001600160a01b03168587604051610a269190610be8565b60006040518083038185875af1925050503d8060008114610a63576040519150601f19603f3d011682016040523d82523d6000602084013e610a68565b606091505b5091509150610a78828286610a83565b979650505050505050565b60608315610a92575081610766565b825115610aa25782518084602001fd5b8160405162461bcd60e51b81526004016102909190610c04565b80356001600160a01b0381168114610ad357600080fd5b919050565b803563ffffffff81168114610ad357600080fd5b803567ffffffffffffffff81168114610ad357600080fd5b600060208284031215610b15578081fd5b61076682610abc565b600060208284031215610b2f578081fd5b81518015158114610766578182fd5b600060208284031215610b4f578081fd5b5035919050565b60008060008060008060008060006101208a8c031215610b74578485fd5b89359850610b8460208b01610abc565b975060408a01359650610b9960608b01610aec565b9550610ba760808b01610aec565b9450610bb560a08b01610ad8565b9350610bc360c08b01610ad8565b9250610bd160e08b01610ad8565b91506101008a013590509295985092959850929598565b60008251610bfa818460208701610c6c565b9190910192915050565b6020815260008251806020840152610c23816040850160208701610c6c565b601f01601f19169190910160400192915050565b6020808252818101527f4f776e61626c653a2063616c6c6572206973206e6f7420746865206f776e6572604082015260600190565b60005b83811015610c87578181015183820152602001610c6f565b83811115610867575050600091015256fea2646970667358221220da81a8d29e723ed3ebc3bc010ba285d644dab45586a2d09e7e284c177bf600c464736f6c63430008040033",
  "linkReferences": {},
  "deployedLinkReferences": {}
}